{
  "contractName": "UWifiCore",
  "abi": [
    {
      "constant": true,
      "inputs": [
        {
          "name": "",
          "type": "address"
        }
      ],
      "name": "tickets",
      "outputs": [
        {
          "name": "expiration",
          "type": "uint256"
        }
      ],
      "payable": false,
      "stateMutability": "view",
      "type": "function"
    },
    {
      "constant": false,
      "inputs": [],
      "name": "buyTicket",
      "outputs": [],
      "payable": true,
      "stateMutability": "payable",
      "type": "function"
    },
    {
      "constant": true,
      "inputs": [],
      "name": "ticketUsable",
      "outputs": [
        {
          "name": "",
          "type": "bool"
        }
      ],
      "payable": false,
      "stateMutability": "view",
      "type": "function"
    },
    {
      "constant": true,
      "inputs": [],
      "name": "remainingTime",
      "outputs": [
        {
          "name": "",
          "type": "uint256"
        }
      ],
      "payable": false,
      "stateMutability": "view",
      "type": "function"
    },
    {
      "constant": true,
      "inputs": [
        {
          "name": "value",
          "type": "uint256"
        }
      ],
      "name": "ticketRate",
      "outputs": [
        {
          "name": "",
          "type": "uint256"
        }
      ],
      "payable": false,
      "stateMutability": "pure",
      "type": "function"
    },
    {
      "constant": true,
      "inputs": [],
      "name": "timestamp",
      "outputs": [
        {
          "name": "",
          "type": "uint256"
        }
      ],
      "payable": false,
      "stateMutability": "view",
      "type": "function"
    }
  ],
  "bytecode": "0x608060405234801561001057600080fd5b506102ac806100206000396000f3006080604052600436106100775763ffffffff7c0100000000000000000000000000000000000000000000000000000000600035041663131e3704811461007c57806316151133146100a65780636dcbf2a3146100cf578063acc4bd08146100fd578063b80777ea14610112578063edca914c14610127575b600080fd5b34801561008857600080fd5b50610094600435610131565b60408051918252519081900360200190f35b3480156100b257600080fd5b506100bb61016b565b604080519115158252519081900360200190f35b3480156100db57600080fd5b5061009473ffffffffffffffffffffffffffffffffffffffff60043516610181565b34801561010957600080fd5b50610094610193565b34801561011e57600080fd5b506100946101d1565b61012f6101d5565b005b6000662386f26fc100006201518082610150838363ffffffff6101f916565b9050610162858263ffffffff6101f916565b95945050505050565b3360009081526020819052604090205442105b90565b60006020819052908152604090205481565b600061019d61016b565b156101c957336000908152602081905260409020546101c2904263ffffffff61020e16565b905061017e565b50600061017e565b4290565b6101dd61016b565b156101ef576101ea610220565b6101f7565b6101f761025e565b565b6000818381151561020657fe5b049392505050565b60008282111561021a57fe5b50900390565b336000908152602081905260408120549061024a61023d34610131565b839063ffffffff61026d16565b336000908152602081905260409020555050565b42600061024a61023d34610131565b8181018281101561027a57fe5b929150505600a165627a7a723058204f8db793faa46174078ec9d6a57d68b2d9528219bdd80311654c5e743d185b3a0029",
  "source": "pragma solidity ^0.4.23;\n\nimport { SafeMath } from \"openzeppelin-solidity/contracts/math/SafeMath.sol\";\n\ncontract UWifiCore {\n  using SafeMath for uint256;\n\n  // For now, supposing ticket has only expiration metadata.\n  // it may be good to have a bandwidth\n  // (But it's difficult to realize how to record bandwidth usage onchain because of tx fee)\n  struct Ticket {\n    uint expiration;\n  }\n\n  // For now, supposing user has 1 ticket.\n  // We think it's good for user to have a variable tickets in future.\n  mapping(address => Ticket) public tickets;\n\n  /*\n    buyTicket by ETH.\n    But I thinks it should be done by stable coin (DAI) or stable utility coin.\n    need more consideration.\n  */\n  function buyTicket() public payable {\n    if (ticketUsable()) {\n      extendTicket();\n    } else {\n      issueTicket();\n    }\n  }\n\n  function issueTicket() internal {\n    uint256 currentTime = block.timestamp;\n    uint256 expiration = currentTime.add(ticketRate(msg.value));\n    tickets[msg.sender].expiration = expiration;\n  }\n\n  function extendTicket() internal {\n    uint256 currentExpiration = tickets[msg.sender].expiration;\n    uint256 expiration = currentExpiration.add(ticketRate(msg.value));\n    tickets[msg.sender].expiration = expiration;\n  }\n\n  function ticketUsable() public view returns (bool) {\n    return tickets[msg.sender].expiration > block.timestamp;\n  }\n\n  function remainingTime() public view returns (uint256) {\n    if (ticketUsable()) {\n      return tickets[msg.sender].expiration.sub(block.timestamp);\n    } else {\n      return 0;\n    }\n  }\n\n  /*\n  @dev Returns how long sec user get for paying ETH\n  @param value the amount of ETH user pay\n  */\n  function ticketRate(uint256 value) public pure returns (uint256) {\n    // For now, 0.01 ETH = 1 day.\n    uint a = 10 finney;\n    uint day = 1 days;\n    uint weiPerSec = a.div(day);\n    return value.div(weiPerSec);\n  }\n\n  function timestamp() public view returns (uint256) {\n    return block.timestamp;\n  }\n}\n",
  "sourcePath": "/Users/kotohata/github/eth_hack_team02/contracts/contracts/UWifiCore.sol",
  "compiler": {
    "name": "solc",
    "version": "0.4.24+commit.e67f0147.Emscripten.clang"
  },
  "schemaVersion": "2.0.0",
  "updatedAt": "2018-07-21T16:53:58.559Z"
}