{
  "contractName": "UWifiCore",
  "abi": [
    {
      "constant": true,
      "inputs": [
        {
          "name": "",
          "type": "address"
        }
      ],
      "name": "tickets",
      "outputs": [
        {
          "name": "expiration",
          "type": "uint256"
        }
      ],
      "payable": false,
      "stateMutability": "view",
      "type": "function"
    },
    {
      "constant": false,
      "inputs": [],
      "name": "buyTicket",
      "outputs": [],
      "payable": true,
      "stateMutability": "payable",
      "type": "function"
    },
    {
      "constant": true,
      "inputs": [],
      "name": "ticketUsable",
      "outputs": [
        {
          "name": "",
          "type": "bool"
        }
      ],
      "payable": false,
      "stateMutability": "view",
      "type": "function"
    }
  ],
  "bytecode": "0x608060405234801561001057600080fd5b50610205806100206000396000f3006080604052600436106100565763ffffffff7c010000000000000000000000000000000000000000000000000000000060003504166316151133811461005b5780636dcbf2a314610084578063edca914c146100c4575b600080fd5b34801561006757600080fd5b506100706100ce565b604080519115158252519081900360200190f35b34801561009057600080fd5b506100b273ffffffffffffffffffffffffffffffffffffffff600435166100e3565b60408051918252519081900360200190f35b6100cc6100f5565b005b33600090815260208190526040902054421090565b60006020819052908152604090205481565b6100fd6100ce565b1561010f5761010a610119565b610117565b610117610157565b565b336000908152602081905260408120549061014361013634610162565b839063ffffffff61019d16565b336000908152602081905260409020555050565b426000610143610136345b6000670de0b6b3a76400006201518082610182838363ffffffff6101b016565b9050610194858263ffffffff6101b016565b95945050505050565b818101828110156101aa57fe5b92915050565b60008215156101c1575060006101aa565b508181028183828115156101d157fe5b04146101aa57fe00a165627a7a7230582019d119d0f6873ddbfc37672756c7dcdb254cb7077778d0ffd8bf1c26317b6b620029",
  "source": "pragma solidity ^0.4.23;\n\nimport { SafeMath } from \"openzeppelin-solidity/contracts/math/SafeMath.sol\";\n\ncontract UWifiCore {\n  using SafeMath for uint256;\n\n  // For now, supposing ticket has only expiration metadata.\n  // it may be good to have a bandwidth\n  // (But it's difficult to realize how to record bandwidth usage onchain because of tx fee)\n  struct Ticket {\n    uint expiration;\n  }\n\n  // For now, supposing user has 1 ticket.\n  // We think it's good for user to have a variable tickets in future.\n  mapping(address => Ticket) public tickets;\n\n  /*\n    buyTicket by ETH.\n    But I thinks it should be done by stable coin (DAI) or stable utility coin.\n    need more consideration.\n  */\n  function buyTicket() public payable {\n    if (ticketUsable()) {\n      extendTicket();\n    } else {\n      issueTicket();\n    }\n  }\n\n  function issueTicket() internal {\n    uint256 currentTime = block.timestamp;\n    uint256 expiration = currentTime.add(ticketRate(msg.value));\n    tickets[msg.sender].expiration = expiration;\n  }\n\n  function extendTicket() internal {\n    uint256 currentExpiration = tickets[msg.sender].expiration;\n    uint256 expiration = currentExpiration.add(ticketRate(msg.value));\n    tickets[msg.sender].expiration = expiration;\n  }\n\n  function ticketUsable() public view returns (bool) {\n    return tickets[msg.sender].expiration > block.timestamp;\n  }\n\n  /*\n  @dev Returns how long sec user get for paying ETH\n  @param value the amount of ETH user pay\n  */\n  function ticketRate(uint256 value) internal view returns (uint256) {\n\n    // For now, 0.01 ETH = 1 day.\n    uint a = 1 ether;\n    uint b = 60*60*24;\n    uint rate = a.mul(b);\n    return value.mul(rate);\n  }\n}\n",
  "sourcePath": "/Users/kotohata/github/eth_hack_team02/contracts/contracts/UWifiCore.sol",
  "compiler": {
    "name": "solc",
    "version": "0.4.24+commit.e67f0147.Emscripten.clang"
  },
  "schemaVersion": "2.0.0",
  "updatedAt": "2018-07-21T15:33:14.508Z"
}