{
  "contractName": "UWifiCore",
  "abi": [
    {
      "constant": true,
      "inputs": [],
      "name": "lastBuyer",
      "outputs": [
        {
          "name": "",
          "type": "address"
        }
      ],
      "payable": false,
      "stateMutability": "view",
      "type": "function"
    },
    {
      "constant": true,
      "inputs": [
        {
          "name": "",
          "type": "address"
        }
      ],
      "name": "tickets",
      "outputs": [
        {
          "name": "expiration",
          "type": "uint256"
        }
      ],
      "payable": false,
      "stateMutability": "view",
      "type": "function"
    },
    {
      "constant": false,
      "inputs": [],
      "name": "buyTicket",
      "outputs": [],
      "payable": true,
      "stateMutability": "payable",
      "type": "function"
    },
    {
      "constant": true,
      "inputs": [],
      "name": "ticketUsable",
      "outputs": [
        {
          "name": "",
          "type": "bool"
        }
      ],
      "payable": false,
      "stateMutability": "view",
      "type": "function"
    },
    {
      "constant": true,
      "inputs": [],
      "name": "remainingTime",
      "outputs": [
        {
          "name": "",
          "type": "uint256"
        }
      ],
      "payable": false,
      "stateMutability": "view",
      "type": "function"
    },
    {
      "constant": false,
      "inputs": [],
      "name": "clearMyTicket",
      "outputs": [],
      "payable": false,
      "stateMutability": "nonpayable",
      "type": "function"
    },
    {
      "constant": true,
      "inputs": [
        {
          "name": "user",
          "type": "address"
        }
      ],
      "name": "getRemainingTimeForUser",
      "outputs": [
        {
          "name": "",
          "type": "uint256"
        }
      ],
      "payable": false,
      "stateMutability": "view",
      "type": "function"
    }
  ],
  "bytecode": "0x608060405234801561001057600080fd5b506103c3806100206000396000f3006080604052600436106100825763ffffffff7c010000000000000000000000000000000000000000000000000000000060003504166313ecfbfa811461008757806316151133146100c55780636dcbf2a3146100ee578063acc4bd081461012e578063e3a9f34814610143578063e786664714610171578063edca914c14610188575b600080fd5b34801561009357600080fd5b5061009c610190565b6040805173ffffffffffffffffffffffffffffffffffffffff9092168252519081900360200190f35b3480156100d157600080fd5b506100da6101ac565b604080519115158252519081900360200190f35b3480156100fa57600080fd5b5061011c73ffffffffffffffffffffffffffffffffffffffff600435166101c2565b60408051918252519081900360200190f35b34801561013a57600080fd5b5061011c6101d4565b34801561014f57600080fd5b5061011c73ffffffffffffffffffffffffffffffffffffffff60043516610212565b34801561017d57600080fd5b50610186610285565b005b610186610297565b60015473ffffffffffffffffffffffffffffffffffffffff1681565b3360009081526020819052604090205442105b90565b60006020819052908152604090205481565b60006101de6101ac565b1561020a5733600090815260208190526040902054610203904263ffffffff6102da16565b90506101bf565b5060006101bf565b73ffffffffffffffffffffffffffffffffffffffff811660009081526020819052604081205442101561027c5773ffffffffffffffffffffffffffffffffffffffff8216600090815260208190526040902054610275904263ffffffff6102da16565b9050610280565b5060005b919050565b33600090815260208190526040812055565b6001805473ffffffffffffffffffffffffffffffffffffffff1916331790556102be6101ac565b156102d0576102cb6102ec565b6102d8565b6102d861032a565b565b6000828211156102e657fe5b50900390565b336000908152602081905260408120549061031661030934610335565b839063ffffffff61036f16565b336000908152602081905260409020555050565b426000610316610309345b6000662386f26fc100006201518082610354838363ffffffff61038216565b9050610366858263ffffffff61038216565b95945050505050565b8181018281101561037c57fe5b92915050565b6000818381151561038f57fe5b0493925050505600a165627a7a72305820ccd3200a542dd11c732c536562e0e5e45af16f7106c33dfab0ba947f0d4972440029",
  "source": "pragma solidity ^0.4.23;\n\nimport { SafeMath } from \"openzeppelin-solidity/contracts/math/SafeMath.sol\";\n\ncontract UWifiCore {\n  using SafeMath for uint256;\n\n  // For now, supposing ticket has only expiration metadata.\n  // it may be good to have a bandwidth\n  // (But it's difficult to realize how to record bandwidth usage onchain because of tx fee)\n  struct Ticket {\n    uint expiration;\n  }\n\n  // For now, supposing user has 1 ticket.\n  // We think it's good for user to have a variable tickets in future.\n  mapping(address => Ticket) public tickets;\n  // For debug\n  address public lastBuyer;\n\n  /*\n    buyTicket by ETH.\n    But I thinks it should be done by stable coin (DAI) or stable utility coin.\n    need more consideration.\n  */\n  function buyTicket() public payable {\n    lastBuyer = msg.sender;\n\n    if (ticketUsable()) {\n      extendTicket();\n    } else {\n      issueTicket();\n    }\n  }\n\n  function issueTicket() internal {\n    uint256 currentTime = block.timestamp;\n    uint256 expiration = currentTime.add(ticketRate(msg.value));\n    tickets[msg.sender].expiration = expiration;\n  }\n\n  function extendTicket() internal {\n    uint256 currentExpiration = tickets[msg.sender].expiration;\n    uint256 expiration = currentExpiration.add(ticketRate(msg.value));\n    tickets[msg.sender].expiration = expiration;\n  }\n\n  function ticketUsable() public view returns (bool) {\n    return tickets[msg.sender].expiration > block.timestamp;\n  }\n\n  function remainingTime() public view returns (uint256) {\n    if (ticketUsable()) {\n      return tickets[msg.sender].expiration.sub(block.timestamp);\n    } else {\n      return 0;\n    }\n  }\n\n  /*\n  @dev Returns how long sec user get for paying ETH\n  @param value the amount of ETH user pay\n  */\n  function ticketRate(uint256 value) internal pure returns (uint256) {\n    // For now, 0.01 ETH = 1 day.\n    uint a = 10 finney;\n    uint day = 1 days;\n    uint weiPerSec = a.div(day);\n    return value.div(weiPerSec);\n  }\n\n  /*\n  @dev for debug only\n  */\n  function clearMyTicket() public {\n    tickets[msg.sender].expiration = 0;\n  }\n\n  function getRemainingTimeForUser(address user) public view returns (uint256) {\n    if (tickets[user].expiration > block.timestamp) {\n      return tickets[user].expiration.sub(block.timestamp);\n    } else {\n      return 0;\n    }\n  }\n}\n",
  "sourcePath": "/Users/kotohata/github/eth_hack_team02/contracts/contracts/UWifiCore.sol",
  "compiler": {
    "name": "solc",
    "version": "0.4.24+commit.e67f0147.Emscripten.clang"
  },
  "schemaVersion": "2.0.0",
  "updatedAt": "2018-07-22T02:19:38.350Z"
}